:1000000000220020851F00007F700000591F0000A3
:10001000591F0000591F0000591F00000000000078
:10002000000000000000000000000000011B0000B4
:10003000591F000000000000711A0000591F000045
:10004000711C0000711C0000711C0000711C00007C
:10005000711C0000711C0000711C0000711C00006C
:10006000711C0000711C0000711C0000711C00005C
:10007000711C0000711C0000711C0000711C00004C
:10008000711C0000711C0000711C0000711C00003C
:10009000711C0000711C0000711C0000711C00002C
:1000A000711C0000711C0000711C0000711C00001C
:1000B000711C0000711C0000711C0000711C00000C
:1000C000711C0000711C0000711C0000711C0000FC
:1000D000711C0000711C0000711C0000711C0000EC
:1000E000711C0000711C0000711C0000711C0000DC
:1000F000711C0000711C0000711C0000711C0000CC
:1001000053B94AB9002908BF00281CBF4FF0FF317E
:100110004FF0FF3000F00CB8ADF1080C6DE904CEE3
:1001200000F008F8DDF804E0DDE9022304B07047D0
:10013000704700BF2DE9F04786468C460846089E6A
:10014000154674461946002B40F0C2808542B2FA2B
:1001500082F245D94AB1C2F1200300FA02FC2EFA1C
:1001600003F3954043EA0C0C94404FEA154EA8B2B5
:10017000BCFBFEF8230C0EFB18CC08FB00F943EA8D
:100180000C43994528D9EB1808F1FF3704D299455B
:1001900002D9A8F102072B44A3EB0903A4B2B3FBD5
:1001A000FEFC0EFB1C330CFB00F044EA0344A042AF
:1001B00014D92C190CF1FF3304D2A04202D9ACF1AE
:1001C00002032C44241A43EA07401EB1D440002302
:1001D00034607360BDE8F0874746DDE76346F1E7CA
:1001E00092BB431B01214FEA154EAFB2B3FBFEFC9D
:1001F000200C0EFB1C330CFB07F840EA0343984528
:1002000062D9EB180CF1FF3004D2984502D9ACF159
:1002100002002B44A3EB0803A4B2B3FBFEFC0EFBCD
:100220001C330CFB07F744EA0344A7424ED92C19B0
:100230000CF1FF3304D2A74202D9ACF102032C44E3
:10024000E41B43EA0040C0E7C2F1200320FA03F1B7
:10025000954090402EFA03F303434FEA154EAFB298
:10026000B1FBFEFC0EFB1C10190C0CFB07F841EA5D
:100270000041884504FA02F422D969180CF1FF30D4
:1002800004D2884502D9ACF102002944A1EB08014F
:100290009BB2B1FBFEFC0EFB1C110CFB07F743EA03
:1002A00001439F420ED9EB180CF1FF3104D29F425B
:1002B00002D9ACF102012B44DB1B41EA004192E779
:1002C0006046E3E76146F7E76046A3E76346B7E7C2
:1002D000834206D916B9002108467BE7C6E900E04B
:1002E000F9E7B3FA83F78FB9834201D3724508D88F
:1002F000BEEB020460EB030301209C461EB9002103
:1003000068E73846FAE7C6E9004CF8E7C7F1200C81
:10031000BB4022FA0CF41C432EFA0CF120FA0CF329
:10032000B84001434FEA14490EFA07F5B3FBF9F858
:100330001FFA84FE09FB18300B0C08FB0EFA43EA87
:1003400000439A4502FA07F240D9E31808F1FF305A
:1003500004D29A4502D9A8F102002344A3EB0A0370
:1003600089B2B3FBF9F809FB183308FB0EFE41EA2A
:1003700003418E452CD9611808F1FF3304D28E4514
:1003800002D9A8F10203214443EA0040A0FB0298ED
:10039000A1EB0E014145CE46434602D306D14D4561
:1003A00004D2B9EB020E68EB04030138002EA6D08C
:1003B000B5EB0E0261EB030101FA0CFC22FA07F324
:1003C0004CEA0303F940C6E9003198E74046C5E727
:1003D0004346D9E7000000002DE9F04F9FB0824668
:1003E000039116461C460025307810B9284600F0C7
:1003F00085BD731C2528069306D00399D047002895
:10040000C0F27C85013527E21822002110A806F0F1
:1004100062FE7378252B7DD00023701C98469E4683
:100420009C461F46014610F8012B2B2A00F0A180A4
:1004300000F29880202A00F09F80232A00F09F80FD
:100440002BB19DF8483043F040038DF84830B8F1A7
:10045000000F05D09DF8483043F020038DF8483058
:10046000BEF1000F05D09DF8483043F010038DF821
:100470004830BCF1000F05D09DF8483043F0080328
:100480008DF848302FB19DF8483043F004038DF8C3
:1004900048309DF8483003F04400442803D16FF3FE
:1004A00086138DF848309DF848302A2A43F080039F
:1004B0008DF848307FD19DF8492042F001024B1C55
:1004C0008DF849201A782E2A9DF849200CBF012169
:1004D000002161F341028DF8492078D15A782A2A07
:1004E0006ED0013300224FF00A0C194611F8010BAF
:1004F000A0F13007092F40F2AD809DF8481014920A
:10050000C1F3400040EAD2700A4660F341028DF820
:1005100048205CE0B21C06928DF84B309DF84930C3
:10052000D90740F1508154F8042B0492002A08DACC
:100530009DF8482042F004028DF84820049A524267
:1005400004925A0740F1478154F8047B002F80F24F
:1005500046819DF849306FF341038DF849304FF0E3
:10056000FF373CE12D2A0DD0302A7FF469AF0123FB
:1005700058E74FF0010C55E74FF0010E52E74FF0EE
:1005800001084FE701274DE70EFB0272303A0346A0
:10059000184610F8017BA7F1300CBCF1090FF3D914
:1005A00099428FD09DF848101392D20F62F3410107
:1005B0008DF8481086E70B4600224FF00A0EE7E759
:1005C0009DF8492042F004028DF8492002331A7840
:1005D0006C2A5FD043D8682A49D06A2A63D04C2A53
:1005E00069D013F8012B0693782A8DF84B2000F27E
:1005F000A9806D2A6CD8692A00F2A480572A00F2DB
:100600008480412A04D0A2F14503022B00F29A8093
:100610009DF84A3002F0DF020421A2F1410761F3A4
:1006200002037A429DF849108DF84A307A4162F30C
:10063000C7110A068DF84910CBB200F1C28003F051
:100640007802182A40F0AC806FF3C6038DF8493069
:1006500000239BE00CFB0202303A0B4645E7742A6C
:1006600025D07A2ABDD19DF8492006210CE05A7880
:10067000682A9DF8492006D1012161F3C6028DF850
:1006800049200233ADE7022161F3C6028DF849200B
:100690000133A6E75A786C2A9DF8492001D104213C
:1006A000EBE70321F0E79DF849200521ECE79DF8F1
:1006B00049200721E8E7BDF8482022F4F04222F063
:1006C000020242F4804242F00202ADF84820DFE725
:1006D0006E3AD3B201229A4040F282431A429DF808
:1006E000493036D112F0240F5ED1D1072AD59DF8BA
:1006F0004A2003F07803A3F14000032161F30202D2
:1007000043428DF84A20434140E0A2F15801C9B26A
:10071000012000FA01F111F4624F7FF479AF40F645
:10072000010319429DF8493019D111F4043F09D051
:100730009DF84A2060F3020203F07803402B8DF805
:100740004A2085D19DF8483043F001038DF84830A8
:100750007EE79DF84A20022161F30202ECE79DF852
:100760004A10022003F0780360F30201402B8DF859
:100770004A1002BF9DF8481041F001018DF8481061
:10078000632A7FF465AF003B18BF01239DF8482022
:10079000C2F340010B4363F341028DF84820BDE6EC
:1007A00013F0380FCED153E79DF84A20032113F000
:1007B000780F61F302028DF84A2014BF0123002351
:1007C000E4E70123E2E79DF94820002AB4BF139A29
:1007D0004FF0FF32B4E69F077FF5C1AE149F0023B0
:1007E000CDE913339DF84A3003F00702042A9DF83F
:1007F000492007D1900705D49DF949100029ACBFC5
:1008000006270D2703F00703012BC2F3C30233D1E0
:10081000D31E042B04D8DFE803F021464621210033
:100820002368012A4FEAE371CDE910311CD19DF90B
:100830004030D917CDE9103104349DF84830079382
:10084000990750D0069B03993246504606F0F1FBBB
:100850000028C0F253830544069EC5E554F8043BC6
:10086000D917CDE91031E8E7022AE5D119B243F3EF
:10087000C033CDE91013DFE7022B24D1D31E042BA4
:1008800004D8DFE803F0181010181800012A54F8F3
:10089000043B4FF0000114D0022ACDE91031CCD135
:1008A0009BB21093C9E7073424F00704F4E802016F
:1008B000CDE91001C1E754F8043B109300231193D4
:1008C000BBE7DBB2CDE7042B08D1073424F00704E3
:1008D000D4E900010834CDE91001AEE7032BACD117
:1008E00054F8043BDDE79DF84BB0BBF1780FB3D86B
:1008F000BBF1570F49D8BBF1250F00F09180BBF138
:10090000240FA9D9BBF1410F03D0ABF14502022A54
:10091000A2D8DDE91012002AC0F23681079B1E071B
:1009200000F13581C3F300194FEA4919C2F30A50A7
:10093000C2F31302002840F02D8151EA020614BFD1
:1009400001260026D20242EA5152C902BBF1460FEB
:1009500040EA010E42EAE07C08BF4FF0660B5EEA17
:100960000C0CCDE90C1200F09781002E40F0448170
:100970000D9A42F00042A0F2FE380D920020DDE90F
:100980000C1206464FF0050C50E1ABF1580120293E
:100990003FF662AF01A050F821F000BF270B000026
:1009A00059080000590800005908000059080000C3
:1009B00059080000590800005908000059080000B3
:1009C0001309000059080000AB0A0000BF0A00002C
:1009D0001309000013090000130900005908000062
:1009E000BF0A00005908000059080000590800001B
:1009F00059080000610B0000270B00002D0B0000C0
:100A00005908000059080000270A00005908000092
:100A1000270B00005908000059080000270B0000B0
:100A200003995846EAE4002F109E3ADB39463046D7
:100A300006F03DFB3718002E3FF40EAF4FF00009D3
:100A40009DF84A3013F01002059200F04C820230FB
:100A500013F04003DDF84C80089318BF149BCDF8C9
:100A60001C80404418BFC018049B002B40F35682E2
:100A70009DF848201B1A04935307C2F3800B00F122
:100A80004D82500640F13D82B9F1000F07D0039925
:100A90004846D0470028C0F231820135D94630227D
:100AA00030E2304606F0FCFAC4E7109B8DF85C306B
:100AB0004FF000090DF15D0717AE0120C0E7079B5D
:100AC0001A0758BFC3F30019DDE9102354BF4FEADA
:100AD00049194FF02B09002B06DA524263EB43030E
:100AE000CDE910234FF02D090DF175030093DDE9D9
:100AF000100117AB12AA06F056FA0646002F0CDBBF
:100B00009DF848200DF175039B1B6FF386129F42E1
:100B10008DF8482001D9FB1A1393002E3FF49CAEA8
:100B20000DF1750756E04FF00009DDE71098002839
:100B300000F0D4810DF17503009312AA17AB0021C8
:100B400006F031FABDF84A3003F0EF0343F4F04306
:100B500043F010030646ADF84A304FF00009CDE7E8
:100B6000109B072A3FF678AEDFE802F00C04060C73
:100B700008080C0C1D706FE61D806DE6EA17C3E9CE
:100B8000005269E61D6067E64FF02D09CEE64FF092
:100B90002B09CBE640F2FF76B0422AD10A43ABF1F3
:100BA00041031ED11A2B35BF492369234E216E21E3
:100BB00034BF462266228DF85C309DF848308DF8AF
:100BC0005D106FF386138DF85E208DF848300DF1BF
:100BD0005F0717AEB81BB9F1000F3FF431AF01301A
:100BE0002EE7192B8BBF6E234E23612141211A461C
:100BF000E1E70026A6E6013849185241002AFADA50
:100C0000CDE90C12B4E6490841EAC2715208B2F1CA
:100C1000333F404608F10108F5D20CFB02FEA1FB70
:100C20000C1200F102087244013E012018F1020F7B
:100C3000E9DB08B1CDE90C12B8F1000FDDE90C21B8
:100C40002DDCC8F10400A0F1200C08F11C08C24002
:100C500001FA08F821FA0CFCC1400BF0DF0042EA6F
:100C60000802472842EA0C023AD1F01C01DBB742E5
:100C70002BDAABF10203002F5FFA83FB7DDD9DF8D9
:100C80004800830607F1FF3777D43B1E18BF0123C6
:100C9000059307F101082DE04FF000086EE60232DF
:100CA00041F100010CA8CDE90C2106F04DF9DDE978
:100CB0000C2108F1FF38013692184941002908F14A
:100CC000FF38F9DACDE90C21B6E79DF848309806EF
:100CD000A7EB06074FD43B1E18BF0123059304E082
:100CE0000023BBF1660F0593D3D117EB06084FF035
:100CF000660B44D4B8F1100FA8BF4FF010089FED59
:100D0000B27B8DED0E7B10200B90DDE90E03B8F168
:100D1000000F37D1121841EB0301B1F1805F41D2CE
:100D2000CDE90C21079BBBF1660F03F0200240F0D8
:100D3000B480002E41DC30218DF85C10002A65D192
:100D4000002F40F3B2812E228DF85D2086B17242D1
:100D5000BA42A8BF3A469DF84A101392002AA7EB60
:100D60000207D4BF0022012262F345118DF84A1018
:100D70000DF15E0839E00023B0E7002388E74FF06B
:100D80000008BCE7400840EAC3705B08CDE90E03E9
:100D90000EA8CDE9082108F1FF3806F0D5F8DDE905
:100DA0000821B2E7520842EAC1720CA84908CDE90D
:100DB0000C21013606F0C8F8B4E70DF15C080B9978
:100DC000002909DD0BA90CA8079206F0D5F8013E11
:100DD00008F8010B079AF2D113969AB9002F40F345
:100DE00062812E2108F8011B0026002F17DD0B9AC7
:100DF000002A14DD0BA90CA806F0BEF8013F08F884
:100E0000010BF2E72E2208F8012BEDE72E228DF8D8
:100E10005D20002EACD0002F99DC0DF15E08059B03
:100E2000002B4ED1149747460BF0DF02452A23D101
:100E3000002EBABF76422D232B23632EC8BF642118
:100E40007B70D1BFBA1CB6FBF1F3FA1C03F1300082
:100E5000C8BF01FB13664FF00A01C8BFB87087F81E
:100E600000B0B6FBF1F3174603F1300001FB13634A
:100E7000303307F8020B5370139B002B2CDC149BB0
:100E8000002BD4BF002301239DF84A2063F3861270
:100E900000238DF84A203B709BE60BA90CA8079213
:100EA00006F06AF8079A8DF85C00302818BF06F142
:100EB000FF3612B9002F40F3F8802E228DF85D2006
:100EC00056E7474608F1FF3817F8012C302AF8D0CA
:100ED0002E2A08BF4746A7E70123D5E73C4F8146A6
:100EE0007E1F0520ACE51A0748BF0130B0E510466B
:100EF00009920399D0470028099A05DA1FB0BDE886
:100F0000F08F2022DDF810B0594600290BF1FF3B8D
:100F1000EDDC049BCDF810B02B445D1AB9F1000F45
:100F200005D003994846D0470028E7DB0135089BE8
:100F3000002B7DD09DF94930002B28DBB3469BF870
:100F40000000A0F13003092BD9460BF1010B46D963
:100F50009DF84A30AE1B99064E4407D44246002AFB
:100F600008F1FF3840DC079B33449E1A99F80000D3
:100F70002E280AD10399D0470028BFDBB8F1000F13
:100F800006F1010636DC09F101094D463DE0B146A6
:100F900099F800007028C84609F101091AD1AE1B62
:100FA000149D46443544AB1B002B39DC03993B466A
:100FB0004246504606F03DF800289FDB3044049E30
:100FC000054606446AE000BF00000000000000087B
:100FD000768A00000399D0470028D9DA8EE7039972
:100FE000D0470028ABDA89E703993020D0470028A2
:100FF000B4DA83E703993020D04708F1FF38BBE724
:101000000399D0470028FFF679AF2878A0F1300384
:10101000092BA84605F10105F2D9A6EB0906BFE7A1
:1010200003993020D0470028FFF668AF0136BAE7B1
:101030009DF84A30DA0601D41B0706D50399302003
:10104000D0470028FFF65AAF0135059B3BB1039905
:101050009DF84B00D0470028FFF650AF0135A8445B
:1010600006E003993020D0470028FFF647AF01354E
:10107000A8EB0503002BF4DC03993B4632465046AF
:1010800005F0D7FF0028FFF639AF284497E703990A
:101090002020D0470028FFF631AF0135731B002B0D
:1010A000F5DCFFF7D9BB1646B9E60DF15D08B6E6EB
:1010B0002DE9F0472DED028B9FED498B4A4E84B010
:1010C00004464FF02003EFF3118783F31288BFF338
:1010D0006F8FD4F8C0508DB9022104F1D80006F00A
:1010E000C4FF002843D100238DED008B029304F14F
:1010F000C80239463D4805F079F9E2E7D4F8C42042
:101100002B68C4F8C030954208BFC4F8C430D4F886
:10111000D83043F00203C4F8D830EB6823F004035E
:1011200043F00103EB606B6887F31188BFF36F8FA7
:10113000284698474FF02003EFF3118983F3128874
:10114000BFF36F8FEB68990723F0010219D4EA60AF
:10115000D4F8D83023F00203C4F8D83089F31188CA
:10116000BFF36F8FDB05ACD405F03EF8A9E704F1BF
:10117000D00500220121284607F04DF80028F8D1BB
:10118000B1E7306823F00303EB600028E0D00027CC
:10119000D0F80080BA460028DAD04268954201466D
:1011A0000BD1016897B972683160824200D17160D9
:1011B00040F808AB04F03AFD3946B8F1000F0BD007
:1011C000D8F8002040460F469046E4E73960726840
:1011D000824208BF7760EBE74246F3E7AFF3008057
:1011E000FFFFFFFFFFFFFFFF9C0D0020A913002062
:1011F00038B5104C204606F094FEC8B12269A568A7
:10120000136843F4003313602B680B4A1121204606
:10121000984700280CDB4FF400316B692046984753
:10122000002805DB00214FF4004005F05FF8F2E7ED
:10123000002038BDDC83000001000600014B1B6864
:10124000184700BF98000020014B1860704700BF8E
:101250009800002007B50B46002102460091034884
:10126000FFF7BAF803B05DF804FB00BF3D120000C1
:101270002DE9F047058B04462807904611D4022932
:1012800005F0070540F0CD80204605F05EFD78B101
:101290000138218B042811D8DFE800F0C3106D85D8
:1012A000950001290CBF45F0100545F02005258368
:1012B00088F31188BFF36F8FBDE8F08701F0070A4C
:1012C000AA4500F0A6800027B9463E46A368002B39
:1012D00000F0BD8041F00801218388F31188BFF33D
:1012E0006F8FA168002900F0BB800D68002900F015
:1012F000B780D1F80480334652462046C047002DBF
:1013000076D02B6829461D46F0E701F007035A1FE7
:10131000012A1BD8002221F00701062B276889B279
:10132000C4E9002209D13B4603E0628B01326283AB
:101330001B68002BF9D141F002012183204605F002
:1013400004FD00287BD041F0200177E0042B0AD176
:1013500021F0070189B22183204605F0F6FC10B187
:1013600041F020012183218B01F0070AAA4550D0CA
:101370000027B946AAE7236921F0070141F00601D9
:10138000062DD3F8009021832DD1B9F1000F40D064
:1013900041F00801218388F31188BFF36F8F3A4928
:1013A0002046C84729E021F00701236941F00401E4
:1013B00089B2042DD3F804902183E6D000273E465D
:1013C0004FF0040A82E721F00701236941F005018B
:1013D00089B2052DD3F808902183D6D000273E4648
:1013E0004FF0050A72E700273E464FF0060A6DE708
:1013F0002B4687E7B9F1000FD1D14FF02003EFF36F
:10140000118883F31288BFF36F8F238B23F00803B7
:101410002383258BEA062ED525F01003238305F0C0
:1014200007056669218B002EBFF66FAF0023276882
:10143000C4E9003321F0070141F001012183218B30
:1014400001F0070AAA454FF000097FF43FAF002FD3
:101450009BD041F00801218388F31188BFF36F8F7F
:10146000002FC7D03D68394633465246204605F026
:1014700098FC2F46F4E7AB067FF51AAF25F0200362
:10148000238305F00705FFE6CF6D000008B504468D
:101490004FF02002EFF3118382F31288BFF36F8FB6
:1014A00002F0E0FC204600F0F5FE034805F0D2FB18
:1014B00000F030FAFCE700BF778A000002F016BDAA
:1014C0002DE9F84305464FF02003EFF3118683F32F
:1014D0001288BFF36F8F0E4B0E4F1C68DFF83880F9
:1014E0004FF00C092CB986F31188BFF36F8FBDE85C
:1014F000F883D4E90123002D18BF13462BB198F8C7
:10150000102009FB02F2B85C98472468EAE700BFA4
:10151000E8050020DC050020700D002070B5194B97
:101520001C7CBFF35B8F04F01F0301229A40164B13
:10153000610903EB8103D04353E8001F01EA000572
:1015400043E80056002EF7D1BFF35B8F0A4213D059
:101550000E4B0F4D8BB10C236343EA18E85C5178B6
:1015600005F0D1FD0020FFF7ABFF0C235C432A19E7
:1015700000232B51C2E9013370BD83F31188BFF3FF
:101580006F8FEFE7700D0020F0050020077100005D
:10159000DC0500202DE9F041354B07461D7C4FF05E
:1015A0002003EFF3118883F31288BFF36F8F0C24AD
:1015B000304B314E6C431A19195D00294CD007CAC3
:1015C00006EB040C8CE8070000221A5588F31188FA
:1015D000BFF36F8F0C236B43F218F05C002839D0F7
:1015E0007B1C10D0D2F808C0244C254A4FF4004090
:1015F0000021ECFB004100232046FEF781FD012184
:10160000381A02F0F3FB04F0B7FD0120FFF758FF92
:10161000BFF35B8F1B4B6A0903EB820305F01F01CD
:1016200001228A4053E8000F104343E800010029DB
:10163000F8D1BFF35B8F144B3BB10C2303FB05F0D8
:101640003318305C597805F052FDFFF767FF04F05E
:10165000A7FD0120BDE8F0810146284600F016F8FC
:101660000028B3D007C8344484E80700AEE700BFC1
:10167000700D0020D0050020DC0500203F420F0047
:1016800040420F00F0050020EF7000002DE9F04F00
:1016900085B00E4603A900F043F81E4B039DD3F816
:1016A00000A0DFF87880431E1BB203EB430304461F
:1016B00005EB83054FF400474FF0000B24B9A1461A
:1016C000484605B0BDE8F08F6868134AC4465946DD
:1016D000E0FB07C100236046FEF712FD0190A868F9
:1016E0000D4AC4465946E0FB07C100236046FEF799
:1016F00007FDBAF1FF3FA94601D0824505D9731C09
:10170000DED0019B1844B042DAD9013CA4B20C3DB2
:10171000D4E700BF9C00002040420F003F420F0072
:1017200008B9024B0B600020704700BF38870000EB
:10173000014805F0E9B800BF3887000038B5044615
:1017400018B90F4B0F485B6898476168B1F5683F5F
:101750000FD0B1F5680F0CD00B4DA94209D011F490
:10176000686107D00948214606F029FC0023236060
:10177000656038BD2068142205F0ADFCF8E700BFB5
:1017800054020020B38A00002C5F5CA9F40A0020F8
:1017900008B520B34368B3F5683F10D10122036850
:1017A000BFF35B8F53E8001F002903D143E80020FB
:1017B0000028F7D1BFF35B8F0DD1002008BD094A87
:1017C00093420AD000684FF0FF324FF0FF3304F02D
:1017D00077F90028F1D00448F0E70448EEE76FF409
:1017E000E040EBE72C5F5CA9E98FFFFFEA8FFFFF8A
:1017F00008B5D8B14368B3F5683F10D1002203683B
:10180000BFF35B8F53E8001F012903D143E8002099
:101810000028F7D1BFF35B8F0BD1002008BD074A2A
:10182000934208D0006804F0C5F9F6E76FF4E04091
:10183000F4E70348F2E70348F0E700BF2C5F5CA938
:10184000E98FFFFFEA8FFFFF10B5044618B91D4B63
:101850001D485B6898476368B3F5683F2FD0B3F5C0
:10186000680F2CD0194A934219D1236803BB18483A
:101870004FF0FF324FF0FF33214604F01DF808B956
:1018800023681BB90F4B13485B68984720681422E4
:10189000002105F020FC4FF46863636008E0B3F5B5
:1018A000683F0DD83A2B03D040F6BA629342DED19E
:1018B000206806F0C7FB636843F03A03636010BD1D
:1018C000054AF3E754020020B38A00002C5F5CA9AC
:1018D000F40A0020D98A00003A00003A08B5064907
:1018E00006484023142206F05CFBBDE8084004498A
:1018F000044805F07BB800BFF4050020F40A00207E
:101900004087000054870000014910220A60704798
:1019100010ED00E072B6404080F31188BFF36F8F86
:10192000BFF34F8F30BF62B6BFF36F8F704700BFFA
:1019300072B6494081F31188BFF34F8F20BF80F307
:10194000118862B6704700BF40B2002807DB044A26
:101950004109012300F01F00834042F82130704705
:1019600000E100E040B200280CDB4309064900F02A
:101970001F0020330122824041F82320BFF34F8F04
:10198000BFF36F8F704700BF00E100E0054B4209D5
:1019900000F01F0053F82220012303FA00F010404A
:1019A000704700BF00E100E040B20028A8BF00F18E
:1019B000604001F10101B8BF064B4FEA4111ACBFD5
:1019C00000F5614000F00F00C9B2B4BF195480F8AF
:1019D0000013704714ED00E030BFFFF7FDBF00BFFC
:1019E000144A08B5144B22F07F029A60BFF34F8F60
:1019F000BFF36F8FD3F8882022F47002C3F88820D9
:101A0000D3F8882042F4A002C3F888204FF0404267
:101A1000C3F83422BFF34F8FBFF36F8F0023E1EE83
:101A2000103A03F083FE04F0F3FC00F09FFA03F099
:101A3000C1FE00BF0000000000ED00E0094A0A49B5
:101A4000936809689967094958674B6843F0805360
:101A50004B60002383F31188BFF36F8F9368986FF7
:101A6000704700BF700D0020BC89000000ED00E051
:101A700021498A6882F8BDE04FF030001044EFF34E
:101A8000098C80E8F01F1EF0100F03D102F17C00DA
:101A900080EC108A202080F31288BFF36F8F174FDD
:101AA0004FF00066CA698A603E6092F9BDE0506FEF
:101AB0000023536780F311881EF0100F03D000231A
:101AC000E1EE103A03E002F17C0090EC108AEFF3B3
:101AD000148323F0040383F31488BFF36F8F04B5DA
:101AE000104600F0DFFABDE8044002F1300090E853
:101AF000F01F8CF309887047700D002004ED00E0A2
:101B00001EF0040F0CBFEFF30880EFF3098081692A
:101B100011F8021C0229FFD001B505F0A8FA01BD99
:101B2000017B890705D5416E40314166816E4039A0
:101B3000816642F8203C009B42F81C3C0F49019B07
:101B400042F8183C029B42F8143C21F001014FF08E
:101B5000807342F8043C42F8081C00234367037B6F
:101B600013F0020FA2F120024FF6085308BF4FF402
:101B70007D430265C0F8BC30704700BF6F6C000049
:101B8000037B13F0020F194B03D190F8BD20D2064E
:101B900017D45A6B42F080425A63D0F8BC30190710
:101BA00009D443F00803C0F8BC30436E40334366A9
:101BB000836E403B8366037B43F002030373802004
:101BC00070475A6B22F080425A63D0F8BC301A0733
:101BD00001D44020704723F00803C0F8BC30436EA6
:101BE000403B4366836E40338366F2E700EF00E0DC
:101BF0000C4A03469068A0B1D0F8BC20406E12F0A9
:101C0000080F0CBF4022802213F1160F04D0821A55
:101C10009A4205D8834203D2814228BF00207047F0
:101C200000207047700D002008B514460D460022B4
:101C3000E1EE102AEFF3148222F0040282F31488FA
:101C4000BFF36F8FBFF36F8F084A906000F02AFADE
:101C5000204685F30988002163B681F31188BFF31C
:101C60006F8F0022002305F002F800BF700D0020E6
:101C700001B572B60B4A906900281EBF0021916120
:101C800006F0D1F962B6EFF30580A0F110004FEA3B
:101C9000C0000549014409C99847BDE8014003490E
:101CA00008470000700D00209C840000B11C00005B
:101CB000044B9968D869884203D003494FF0805299
:101CC0000A607047700D002004ED00E070B5264BEF
:101CD00015469A6A12F0100F9A6A14BF1124102444
:101CE00012F0080F9A6A18BF1224920706460AD506
:101CF000586B9A6A140634D519B19A6A22F0800298
:101D00009A62132401E06FF01500174B9A6A12F0E3
:101D1000010F9A6A18BF142412F0200F9A6A18BF94
:101D20001524D20602D49B6A9B070AD50E4B5B682A
:101D3000190506D53146FFF75BFF10B180F309881E
:101D40000224094B9A6A920642BF5A6A22F4005250
:101D50005A629A6A42F0FF029A6200232B70204670
:101D600070BD6FF01500CCE700ED00E0134B9A6AF0
:101D700012F0007F9A6A14BF1E201D2012F0807F8F
:101D80009A6A18BF1F2012F4002F9A6A18BF2120E8
:101D900012F4802F9A6A18BF222012F4003F9A6A28
:101DA00018BF232012F4803F9A6A6FEA02426FEA5A
:101DB00012429A6218BF2420704700BF00ED00E075
:101DC00010B5194B0246986A9C6A10F4805F14BFE4
:101DD0001720162014F4006F9C6A18BF1820A40561
:101DE00009D5986B986A000404D51AB19A6A22F44E
:101DF00000429A6219200C4B9A6A12F4806F9A6A18
:101E000018BF1A20D2050CD49B6A13F4005F18BFC8
:101E10001C20054A936A43F47F43936200230B70AE
:101E200010BD1B20F5E700BF00ED00E070B5454B8D
:101E30005B689CB00546C3F30803002686F311884F
:101E4000BFF36F8F02F07F40B0F17F4F11D102F0EE
:101E50000C0008280DD010074CBF0D4601260022AB
:101E6000033B8DF80720032B05D8DFE803F01E5D48
:101E7000615A3546F3E700249DF807309BB9682284
:101E8000294602A805F01CF9099B002E54D0C3F383
:101E9000080222B96FEA53236FEA4323099302A988
:101EA000204605F0E2F81CB070BD264BDA6A9107B7
:101EB000E1D4DA6A002ADEDBDA6A5200DBD55A693D
:101EC000A96942F480725A61BFF34F8FBFF36F8FDD
:101ED0005A6931F8021C22F480725A61BFF34F8FA5
:101EE000BFF36F8F4DF6027291420AD09A6AD2B256
:101EF0004AB10DF1070201212846FFF7E7FE04462B
:101F0000BAE72C68B8E79A6A12F47F4F05D00DF152
:101F100007010120FFF754FFF1E79B6AB3F5803F0B
:101F2000A9D3FFF723FFEAE70DF107020021E3E75A
:101F30000DF107010020EDE723F4FF7323F0010307
:101F4000ACE700BF00ED00E0024A536943F0100324
:101F50005361704700ED00E0EFF30880EFF3098173
:101F600001B57246FFF762FF01BD00BF04480023C0
:101F70002021C2180133302B82F80013F9D17047A9
:101F800000E100E0002080F31488BFF36F8FFFF7BB
:101F900095FA00200D490860BFF34F8F0C4880F37D
:101FA000088800F02BF8202080F3118809484FF4AE
:101FB0000461401880F30988EFF31480022108437C
:101FC00080F31488BFF36F8FFFF70AFD94ED00E0F4
:101FD00000220020001400200749D1F8902000239F
:101FE000C2F307221846934200DB7047C1F89830CD
:101FF000C1F8A0000133F6E700ED00E008B572B6C5
:10200000002383F31388FFF7E7FF144B4FF0FF32F1
:10201000C3F88020C3F88420C3F88820C3F88C203C
:10202000C3F89020C3F89420C3F89820C3F89C20EC
:10203000C3F88021C3F88421C3F88821C3F88C2118
:10204000C3F89021C3F89421C3F89821C3F89C21C8
:1020500062B6BFF34F8FBFF36F8F08BD00E100E0A2
:10206000084B9B6883420BD1EFF3058343B1064BCA
:102070005A6842F080525A605A6A22F400425A6208
:1020800004F054B9700D002000ED00E0024B034A4B
:102090000348012100F076B8000004200000002071
:1020A0006487000010B50446FFF76AFD626E0346C0
:1020B0000548D21AC0E90023044B8360BDE81040F4
:1020C000012100F069B800BF100B002000000B15C3
:1020D000F0B5204E00258D4239DA446874B353B10F
:1020E00004F1FF3C14EA0C0F2FD11F2C2DD90768E7
:1020F0001CEA070F29D1202C0768D0F808C05FFA26
:1021000082FE1ED9B4F1004F1DD8013CB4FA84F40C
:10211000C4F11F046400BEF1070F4CEA040C14D88C
:1021200027F01F04144344F01004C6F89820C6F8A2
:102130009C404CF00104C6F8A040013201350C303F
:10214000C9E70824E7E73E24E5E76FF015021046EB
:10215000F0BD00BF00ED00E0044B0522C3F8942061
:10216000BFF34F8FBFF36F8F704700BF00ED00E0EC
:10217000BFF35F8F024B0022C3F89420704700BF6B
:1021800000ED00E010B5034C01232278FFF7A0FF1B
:10219000207010BD8C0F002008B5094A002312786A
:1021A000FFF796FF10F1160F02D0064A072800DD50
:1021B00008BDC2F89800C2F8A0300130F6E700BFB1
:1021C0008C0F002000ED00E014490868082810B5C5
:1021D00021D8FFF7CDFF124C49680022904201F14F
:1021E0000C0105D10F4B1870FFF7B6FF002010BD92
:1021F000C4F8982051F80C3C23F01F03134343F01C
:102200001003C4F89C3051F8043C43F00103C4F8B7
:10221000A0300132E2E74FF0FF30E8E770870000BE
:1022200000ED00E08C0F0020014B1860704700BFEC
:10223000C000002010B54FF02003EFF3118083F3AE
:102240001288BFF36F8F114A0123C2F840354FF057
:1022500080424FF08051C2F87835D1F83041082CD7
:1022600008D1D1F83411052904D8094C615C09B1B1
:10227000C2F838364FF080430122C3F8802580F33E
:102280001188BFF36F8F002010BD00BF00E0014038
:10229000198B00004FF08043C0B2C3F81C05BFF398
:1022A0004F8F0549054BCA6802F4E0621343CB60C7
:1022B000BFF34F8F00BFFDE700ED00E00400FA051B
:1022C00020B1034B800143F001031847704700BF62
:1022D00030870000054B0122C3F8002590F87610E6
:1022E00009B1DA6070471A605A60704700700040A8
:1022F000087970B500F01F04072C20D80B780B2B41
:102300001DD8DFE803F0070707071C061C1C1F2168
:102310001C2304234A78032A1AD0042A0FD100254B
:102320004A8844F20A06B24246D013D844F2030661
:10233000B2423DD044F20506B2423BD0E2B36FF068
:10234000150034E00523E5E70623E3E70723E1E78B
:102350000125E5E744F21406B2422FD044F22806E4
:10236000B2422DD044F20F06B242E8D10322C0F3AC
:1023700040101B0243EA005343EA053343EA024399
:10238000220102F1804202F5E0420020C2F8183535
:10239000230103F1804303F5E0438A79C3F8142550
:1023A000C3F81005074B4A79234483F8902070BD89
:1023B0000022DCE70122DAE70222D8E70422D6E78E
:1023C0000522D4E700000020F7B50C464FF0FF339C
:1023D00055484FF0FF3203F049FC6668731EFE2B30
:1023E0003CD800235148524F1A4626FA03F111F007
:1023F000010126D017F803C0BCF1000F2ED000EB6E
:10240000031E657CDEF81815003D18BF012521F07C
:10241000807141EA0561CEF8181503F151010901F7
:10242000013240F801C0D2B20133082BDDD1237C48
:10243000083B062B12D8DFE803F009111D11191112
:102440001B0003F151052D014151EDE700233749F0
:10245000012AC1F8F035637C0ED97BB16FF0150409
:10246000314803F0E3FB204603B0F0BD0223EEE762
:102470000323ECE70123EAE7082BEFD8C1F8F43592
:102480002168530011B1898901FB0333E168994246
:1024900047D3264BA168C3F82C162746C3F830262D
:1024A0000FCF244D05F164060FC63B68336000264C
:1024B0002E6623682F4683B30FCB05F1780484E89A
:1024C0000F006C66A5F8886038B3BFF35B8F57E8E0
:1024D000003F47E80062002AF9D1BFF35B8F16493D
:1024E000AC6F164A4FF400400F463146E4FB0071D2
:1024F00000233846FDF704FE0022CDE90001002349
:1025000005F1080004F050F90D484FF0FF324FF08C
:10251000FF3303F0ABFB2C6EA2E70648FFF7DAFEB1
:10252000F2E76FF00B049BE74000002000700040D2
:1025300090000020000000203F420F0040420F00AA
:102540005000002010B50E4B0024C3F80441D3F80E
:102550000421C3F81041D3F810211222C3F8042338
:102560000720FFF7F1F9224601210720FFF71CFAA7
:102570000448836C13B9403003F058FB002010BDB1
:10258000007000400000002038B52E4BD3F8042125
:10259000002A49D00022C3F80421D3F804112A4CA0
:1025A00001219960C3F80025636E2546BBB3E36F34
:1025B000B4F8882033B104F164019847012814D09D
:1025C000022827D0B4F88830B4F884209A4221D960
:1025D0000133A4F888301B4BD3F82C26D3F83416DB
:1025E00089B202EB4102C3F82C26A36F23B9BDE8E0
:1025F00038401548FFF76EBEBFF35B8F55E8003FCC
:102600005A1E45E800210029F8D1BFF35B8F012B4A
:10261000EDDC38BDA36F13B10C4805F04FFE0C483C
:10262000BDE8384003F002BBD3F810110029F0D008
:10263000C3F81021D3F8102101229A601A605A6061
:10264000E7E700BF00700040000000200800002005
:1026500050000020084B70B5C31A0D4607499B1067
:10266000044659430648402204F088FD2B460146A3
:102670002046BDE870401847300B0020B76DDBB630
:10268000AC83000073B50C4C0C4A4023041B009330
:102690000D460B460A49A41061430646094804F05A
:1026A0009AFD011E05DA30462B4602B0BDE87040A7
:1026B000184702B070BD00BF300B0020437200000D
:1026C000B76DDBB6AC830000002270B50121044673
:1026D0001046FFF769F90F4801F0A2FD0E4B984232
:1026E00015D105F075F926690C49304604F07EFBDA
:1026F00000280BDB012535642469084904F11C001E
:1027000004F074FB002801DBE564002070BD6FF06D
:102710000400FBE7552700000000AD0B9C8700007C
:1027200070B501460C2309484B43C418D4E90E5632
:10273000403300221844A26304F00DFD2DB132464F
:102740002B460348BDE87040184770BD300B002091
:10275000AC83000010B1012804D07047034B1B6C00
:102760005B0701D1FFF7DCBF704700BF300B0020D3
:1027700008B54FF02003EFF3118183F31288BFF304
:102780006F8F124A136843F002001060DA0708D412
:1027900081F31188BFF36F8F0120BDE8084005F079
:1027A00024B94FF08043D3F80C24D3F80C34D3076A
:1027B000EED5074804F0CFFC81F31188BFF36F8F8B
:1027C0000020BDE80840FFF7ABBF00BF800B002032
:1027D000700B00201FB500220123CDE90223094A16
:1027E000CDF800D06B46CDF804D004F023FD0028CE
:1027F00005DB4FF480420023684603F037FA05B04A
:102800005DF804FB6372000010B54FF02003EFF396
:10281000118483F31288BFF36F8F074A136823F084
:102820000201DB07116002D4012005F01AF984F3DC
:102830001188BFF36F8F10BD800B0020024AC3B216
:102840001C2003FB00207047300B00202DE9F041D5
:102850003849BFF35B8F0746012251E8003F41E84A
:1028600000200028F9D1BFF35B8F33B932493348D8
:102870004B60CB608A6004F0CCFA7B1E012B2BD816
:10288000012F07D14FF08043D3F81C3403F003032A
:10289000012B21D005F0BCFB0546F8B9284B1B786D
:1028A000E3B14FF080430222C3F808230646DFF865
:1028B00094804FF08044D4F81834D4F81824D2030C
:1028C00016D503F00303012B01D0012F10D15DB306
:1028D00086F31188BFF36F8FBDE8F0814FF02003BE
:1028E000EFF3118683F31288BFF36F8F0125DEE7C4
:1028F000ADB13046FFF71CF8D4F81835002BDAD10B
:10290000D4F80421002AD6D0C4F80431D4F8043114
:102910000123C4F81835C8F88031A360CBE7002143
:10292000212003F0E3FCE7E74FF080430222C3F8E5
:102930000423D1E72C0B00201C0B00204C0B0020A3
:10294000A813002000E100E010B5044C2046FEF77B
:102950007BFC2046FFF768FC002010BD61290000C9
:10296000F7B5144E8DF8070004460325EFF31187E1
:102970004FF0200181F3118801220DF107010020A1
:1029800002F06AFE87F3118820B1012333702046DC
:1029900003B0F0BD3378002BF9D0013D08D005F02D
:1029A00037FB0028E2D10021422003F09FFCDDE745
:1029B0003570ECE78D0F002030B54068057B01F0E5
:1029C0001F04B2F5001F85B044EA451405D1204626
:1029D00001F0AAFE002005B030BD0025B2F5800F41
:1029E000CDE9025514D1B3F1007F0CBF04230523B8
:1029F0008DF808300023194602AA204601F0D2FCC7
:102A00001F4B984239D10121204601F045FEE1E7F4
:102A1000B3F1C06F26D0B3F1007F14BF01230223AE
:102A20008DF808308368CB40D907E3D4B2F1A07F9A
:102A3000E0D16209012A04F01F03124A03F5E07392
:102A400018BF4FF0A04252F82330DB07D2D40DF16B
:102A500007052946204601F0CBFD0B4B984203D0D9
:102A60000395C7E70323DBE7284601F00FFE044B7D
:102A70009842F5D06FF00B00ADE76FF01500AAE7B4
:102A80000000AD0B000300500400AD0B10B501F0C9
:102A9000EDFD044668B901F0C1FD084B98420AD12A
:102AA0000748214601F09EFD224605210620FEF73B
:102AB0007BFF002010BD6FF00400FBE70000AD0BB2
:102AC000C52A0000420970B5034602D0012A17D07A
:102AD00070BD0D4E326951680029F9D003F01F0313
:102AE00001250C689D400029F2D08A682A4002D056
:102AF0004B68304698472CB1236821461C46F2E7C4
:102B0000024EE7E72346F8E7DC830000C4830000B9
:102B10002DE9FF4147683B7B01F01F0545EA43155E
:102B20000E4628460DF10301144601F061FD14F430
:102B3000403F80460BD1284601F01EFE3D4B984594
:102B400003D19DF8030001F09BFD00200CE0002361
:102B5000194602AA2846CDE9023301F023FC354B81
:102B6000984204D06FF0150004B0BDE8F0818045B4
:102B700003D19DF8030001F083FDA3034BD540F280
:102B800006332340B3F5837F19D00CD8062B17D01A
:102B900004D8ABB1022BE5D1042311E0B3F5807F5B
:102BA000E0D101230CE040F20222934227D0B3F59A
:102BB000407F26D0B3F5007FD4D1022300E0072365
:102BC0008DF8043084F48033C3F30043E0068DF8BD
:102BD000053054BFC4F34013032321038DF806309E
:102BE00011D57A680123B340C2F80835002201A943
:102BF000284601F085FC0F4B9842A6D0B2E705238A
:102C0000DEE70323DCE7620341BF01237A68B340B8
:102C1000C2F80C35EAE7E3064FF0000354BFC4F3F3
:102C2000401403241A4601A928468DF8044001F0F7
:102C3000B9FBE0E70000AD0B08B543681B68D3F8AB
:102C40000805D3F80C1502F06DFC034B984214BF35
:102C50006FF00F00002008BD0000AD0B37B5044633
:102C6000002201210320FEF79FFE63689D6901AAEF
:102C70000021284604F0CAFB002814DB019B2A68C7
:102C80001979186800F0B0F800280CDB6068236937
:102C9000064A00F1080102F033FB054B984214BFCD
:102CA0006FF00F00002003B030BD00BFB52C000056
:102CB0000000AD0B0378012B08D0022B08D04BB9D4
:102CC000054B0B6201F1100002F0B0BF034BF8E7B7
:102CD000034BF6E7034BF4E70000AD0B0100AE0B2E
:102CE0000200AE0B0100AD0B2DE9F04F8BB0054695
:102CF0000C4690460193476806694FF0FF324FF04B
:102D0000FF33304602F0B2FF06F1100A0022002322
:102D1000504602F0ABFF384602F054FBDFF8C4B077
:102D20004FF00009C14501D300242EE0237A03931C
:102D300013F008014DD112220DF11600029104F09A
:102D4000CAF9039B60680199069003F001022068AC
:102D50008DF8151013F0020F02998DF814200890C9
:102D60001DD108F1FF334B4502D9237D5B0718D5F0
:102D70007ABB202205A9384602F050FB584512D0F4
:102D8000174B984228D06FF00404384602F02AFB13
:102D9000304602F04BFF20460BB0BDE8F08F0A46EC
:102DA000E8E74022E6E74FF480420023504602F075
:102DB0005DFF30B1384602F015FB2846FFF73CFFB7
:102DC000E1E7336A5B4504F10C04DCD109F1010948
:102DD000A8E76FF08504D8E76FF00F04D5E700BFD0
:102DE0000B00AD0B0000AD0B2DE9F0415A4E00EB8E
:102DF00081010127814202D10020BDE8F0810468F1
:102E000004F07F03C4F343257F2B4FEA144408BF2B
:102E10004FF0FF33222C00F29B80DFE804F01224F5
:102E200029442C404499999999477099999999996D
:102E300099999999737B7E81999999848A8D9093B8
:102E40009600C2F80C354FEA531CBCF1010F03F099
:102E50001F0414BF4FF0A04CB44607FA04F4CCF89A
:102E60000845012402E0C2F814350024A64624E0F7
:102E7000C2F80835E7E7C2F8083500244FEA531EC8
:102E8000BEF1010F14BF4FF0A04EB64603F01F0C69
:102E900007FA0CFCCEF80CC54FF0010E0DE0C2F89D
:102EA0000C350124EAE7C2F81035DEE7C2F8083530
:102EB000002DDAD10024A646062550F804CB0CF4E8
:102EC0000058B8F1000F4FEA0525CCF3C11803F004
:102ED0001F0C4FEA53131CBF01244FF0000E45EAAC
:102EE0008805012B0CBF33464FF0A04345EA0E0581
:102EF0000CF5E07C45EA440543F82C507AE7C2F82B
:102F00000C35D5E7C2F860350468C4F38034002C72
:102F1000C7D098E7C2F86435F6E7C2F86835F3E73A
:102F2000C2F86C35F0E7C2F8243501244FF0000EEA
:102F3000C3E7C2F8283586E7C2F83035F5E7C2F8AE
:102F40003435F2E7C2F83835EFE7C2F83C35ECE744
:102F50006FF0850051E700BF00030050014B0122D4
:102F60001A60704700C000400C2903690BD15B6AEE
:102F7000064907484B4393FBF0F100FB1133116006
:102F80005360002070476FF08500704790D00300B9
:102F900040420F00044B00690022C3F80021D3F81F
:102FA000003102F043BE00BF00C000407FB505699C
:102FB000AB6A63B3392901D00C292BD105F1100676
:102FC0004FF0FF324FF0FF33304602F079FD134BE4
:102FD0000193A86A0323002469460394029303F033
:102FE00018FF4FF0FF324FF0FF33284602F03EFE4D
:102FF000A86A03F066FF0A4BD3F808256A6201222B
:103000005A60304602F0D6FD204604B070BD6FF025
:103010000A00FAE76FF08500F7E700BF5D2F0000B8
:1030200000C0004010B504690020FFF707FCA06253
:103030004FF0FF320021204605F00BF804F110009C
:1030400005F000F8002201210C20FEF7ADFC0C2059
:10305000FEF77AFC024B0122C3F80423002010BDC6
:1030600000C00040F0B54B79012B26D0032B21D1B5
:1030700010258B79032B1DD1CE790EB1012E19D1DC
:103080000A7912B1022A15D10E220B684468B3F5F1
:10309000164F276867D02DD8B3F5165F66D016D8BF
:1030A000B3F5966F64D00AD8B3F5967F63D0B3F5C5
:1030B000167F63D06FF0850054E00025D9E7B3F5A3
:1030C000166F5ED0B3F5965FF4D1384B3CE0B3F5A4
:1030D000E14F59D007D8B3F5615F57D0B3F5964F9C
:1030E000E8D1334B30E047F61224A342E2D14FF44B
:1030F000000329E0B3F5613F4AD013D8B3F5963FFA
:1031000049D009D84DF6C024A34246D0B3F5614F4B
:10311000D0D14FF46B0317E0B3F5E13FCAD14FF0C4
:10312000EB7311E0B3F5612F3AD008D8214CA342DC
:1031300039D0B3F5E12FBDD14FF0E86304E01E4C68
:10314000A342B7D14FF080530469C7F824354368D0
:1031500035431B682A43C3F86C2503C9231D83E844
:1031600003000020F0BD4FF41D03EDE7134BEBE728
:103170004FF49E23E8E74FF4A033E5E74FF41C3308
:10318000E2E74FF41D23DFE70D4BDDE70D4BDBE7F7
:103190004FF06C73D8E70C4BD6E74FF46503D3E7D9
:1031A0004FF07063D0E74FF08063CDE700B01300BD
:1031B00000A04E0090D0030040420F0000502700B6
:1031C00000C0750000F03A0000903A012DE9F74385
:1031D0008046002201210220FEF7E6FB0220FEF7D6
:1031E000B3FBD8F80470D8F810603C680021C4F82C
:1031F0000015C6F80080D7F80C9001AA484604F0E4
:1032000005F9051E54DB019BD9F8002019791868CF
:10321000FFF7EAFD051E4BDB311D4046FFF722FF9D
:103220000546002844D17B6899071AD506F1180095
:1032300001F0A4FB224B98423ED1337EDB0003F128
:10324000804303F5F83304F10C0204F59071C3F8E0
:103250001015C3F81425327E01239340194AC2F891
:1032600004350823C4F800353B7A53B9C4F810314B
:10327000D4F810317369C4F834350123C4F83835F3
:1032800023607B689A075CBF4FF48073C4F80433F3
:103290007B68DB0644BF4FF48003C4F80433336912
:1032A000C4F844350023C4F848350123A360E36023
:1032B000284603B0BDE8F0836FF00405F8E700BFCF
:1032C0000000AD0B00F00140F8B5044607690D465B
:1032D00004F09EFEB0B92E4B1B789BB1642660684B
:1032E00004F0CAF800BB012004F070FB013EF6D1E7
:1032F0000021212002F0FAFFF0E786F31188BFF3E6
:103300006F8FF5E74FF02003EFF3118683F31288F8
:10331000BFF36F8F6068314604F0AEF890B986F362
:103320001188BFF36F8FEDE74FF02003EFF31186A5
:1033300083F31288BFF36F8F6068314604F09CF806
:103340000028DAD03B691D70626838691368C3F8D9
:1033500044050120C3F848050020C3F82001D3F834
:103360002051C3F858015268D3F85801D20608D545
:10337000626812680820C2F800054FF48002C3F8A2
:10338000042301229A6081F31188BFF36F8FF8BD87
:10339000A81300207FB5054640682A69936C116D1B
:1033A000E3B9A9B1546C91651E460B46D26C0292EA
:1033B000CDE90046EAB1002918BF19460391002261
:1033C000694601F0D5FB0D4B984214D06FF0040113
:1033D000286904B0BDE8704004F05DB9546C11B1C7
:1033E0008B4228BF0B46002C936514BF1E46002657
:1033F000DCE71146E2E704B070BD00BF0000AD0B92
:103400002DE9F04F8BB09846436803938B8804698D
:103410009B0407460E46914600F1EC804FF0FF32C8
:103420004FF0FF3304F1100002F020FC6660D7F883
:1034300010A07B6801939AF85D3002931BB1DAF813
:1034400000309E4263D0B6F804C01CF4006F40F018
:1034500000811CF0090F40F0F980CCF34513082BD4
:1034600040F0F48035688C4B9D4240F2EF80019B28
:1034700003F1080BBBE80F000DF1140EAEE80F00CE
:10348000DBF80030CEF80030844B9D4240F2BB8028
:10349000834B9D4240F2BA80824B9D4240F2B980FC
:1034A000814B9D4240F2B880804B9D4240F2B780F4
:1034B0007F4B9D422CBF4FF000454FF080451CF0E4
:1034C000020F07950CF0040300F0AC80002B14BF32
:1034D000032302238DF82030029BCCF3001C8DF8CF
:1034E00021C02BB1019801F00BFB00238AF85D305D
:1034F0005346704A019805A901F054FA6E4B984260
:1035000040F0948001238AF85D30CAF800600123FE
:1035100084F85C30B9F1000F40F09E80C4F834901C
:103520000023A36304F1480204F1380104F13400DC
:1035300003F0F0FF6064B8F1000F40F09680C4F82B
:103540003C800023236404F1500204F1400104F1A3
:103550003C0003F0DFFF00252A46E06401212046FD
:10356000256303F0FEFF3846FFF714FFA06B2A46E1
:103570002B46834240F082800023256C1946A942E5
:1035800040F083809342264638BF13464FF4FA52E8
:1035900002FB03F556F8203B4FF000081B68B5FB13
:1035A000F3F54FF4004CC835414640F2E7304FF494
:1035B0007A720023E5FB0C01FCF7A2FD02460B46E4
:1035C000304602F053FB18B9256B15F1740F2FD15B
:1035D0000398C4F8588001F093FA84F85D80386944
:1035E0006FF0730104F057F8304602F067FB6FF09C
:1035F00073051DE0A369002B7FF410AF6368994247
:103600007FF40CAF13E74FF0007558E74FF080657B
:1036100055E74FF0006552E74FF080554FE74FF008
:1036200000554CE7003B18BF012353E76FF004053A
:1036300023689B8813F4005304D1636004F11000E5
:1036400002F0F4FA28460BB0BDE8F08F6FF01505D4
:10365000EEE76FF08505EBE7D9F800306363002BE8
:103660003FF45EAFD9F804305BE7D8F80030E3638D
:10367000002B3FF466AFD8F8043063E7616B01EBD1
:10368000C301013349680A4473E7E06B00EBC100F2
:1036900001314068034472E747E801008FD003001E
:1036A0001FA107003F420F007F841E00FF083D005E
:1036B00000127A00B77600000000AD0BF0B5046987
:1036C0004768A56C236D85B006463DB96BBB1946AE
:1036D000306905B0BDE8F04004F0FFB8616C03BB91
:1036E00031BB3A8D636C0091AA4228BF2A46A2657D
:1036F0001BB1A36C002B18BF13460193E36C02931C
:103700001BB1236D002B18BF1346002269463846B3
:10371000039301F01FFC0E4B984217D06FF0040189
:10372000D6E79D4228BF1D46DAE7616C1D46D8E703
:1037300001F06043B3F1005FD3D0082D28BF082506
:10374000206E2A4603F0BCFC216ECAE705B0F0BD2E
:103750000000AD0B2DE9F04F8BB098464368029303
:103760008B880469064698040D46914600F1FA805C
:103770004FF0FF324FF0FF3304F1100002F076FA01
:103780006560D6F804B0D6F810A0DBF808300393D3
:103790009AF85D3000931BB1DAF800309D426ED08C
:1037A000AF88390500F1138117F0090F40F00C8143
:1037B000C7F34513082B40F007812B680193019A4A
:1037C000944B9A4240F200810BF10C0EBEE80F00C0
:1037D0000DF1100CACE80F00039B019A934228BF37
:1037E00013469EE803008C4A93428CE8030040F2A3
:1037F000C2808A4A934240F2C180894A934240F291
:10380000C080884A934240F2BF80874A934240F288
:10381000BE80864A9342C0F0BD80854A9342C0F084
:10382000BC80844A93422CBF4FF0A0534FF02063DA
:10383000BA07069307F0040340F1B280002B14BFCF
:10384000032302238DF81C30009BC7F300178DF86B
:103850001D702BB1584601F01FFB00238AF85D3024
:103860005346754A04A9584601F016FA734B98421C
:1038700040F09A8001238AF85D30CAF80050012395
:1038800084F85C30B9F1000F40F0A480C4F83490A3
:103890000023A36304F1480204F1380104F1340069
:1038A00003F05AFF6064B8F1000F40F09C80C4F848
:1038B0003C800023236404F1500204F1400104F130
:1038C0003C0003F049FF00252A46E0640121204620
:1038D000256303F068FF3046FFF7F0FEA06B2A4631
:1038E0002B46834240F088800023256C1946A9426C
:1038F00040F089809342274638BF13464FF4FA526E
:1039000002FB03F557F8203B4FF000081B68B5FB9E
:10391000F3F54FF4004CC835414640F2E7304FF420
:103920007A720023E5FB0C01FCF7EAFB02460B462A
:10393000384602F09BF918B9256B15F1740F35D193
:103940000298C4F8588001F0A7FA84F85D803069C5
:103950006FF0730103F0C1FF384602F0AFF96FF06A
:10396000730523E0A369002B7FF402AF63689942DB
:103970007FF4FEAE05E74FF0007359E74FF0806328
:1039800056E74FF0006353E74FF0805350E74FF096
:1039900000534DE74FF080434AE74FF0004347E7BD
:1039A000003B18BF01234DE76FF0040523689B8897
:1039B00013F4005304D1636004F1100002F036F9EF
:1039C00028460BB0BDE8F08F6FF01505EEE76FF0FD
:1039D0008505EBE7D9F800306363002B3FF458AF5F
:1039E000D9F8043055E7D8F80030E363002B3FF4F2
:1039F00060AFD8F804305DE7616B01EBC3010133C0
:103A000049680A446DE7E06B00EBC1000131406892
:103A100003446CE747E801008FD003001FA10700B3
:103A20003F420F007F841E00FF083D0000127A0015
:103A30000024F4000048E801FB7800000000AD0B12
:103A400070B5012383400E4ABFF35B8FDC4352E81D
:103A5000001F01EA040542E80056002EF7D1BFF32B
:103A60005B8F4FF4803282400648C0F80823BFF3D2
:103A70005F8FBFF36F8F0B4214BF0120002070BD1A
:103A8000CC0B00200010014070B40E49D1E9003485
:103A9000D01AC31844F1000422F07F46C1E9003473
:103AA000A6F50013B3F5400F09D2074B1B681A0A9D
:103AB0001B069C19054B42F10005C3E9004570BC8B
:103AC00002F07CBD40030020D00B00204803002002
:103AD00011B3BFF35B8F0123104A834052E800CF3C
:103AE0004CEA030C42E800C10029F7D1BFF35B8F19
:103AF0000B4A4FF480338340C2F80433094BBFF3C1
:103B00005B8F1B68BFF35B8FC340DB0742BF064B75
:103B10004FF40032C3F80021704700BFCC0B0020E7
:103B200000100140C80B002000E100E00D4B1868B8
:103B3000010A0006BFF35F8F0B4BD3F8043518184A
:103B400041F10001B3F5801F0AD2084BD3E90023ED
:103B5000904271EB030303D210F1807041F1000138
:103B6000704700BFD00B0020001001404803002028
:103B70002DE9F74F16461F460446FFF761FF0090F8
:103B8000FFF7D4FFB04271EB070351D23A4B301A22
:103B900067EB0101984271F100016AD2374B03EBE8
:103BA0000413D3E902239F4208BF96424ED0344902
:103BB0004FF4803904F1500509FA04F9AD00C1F859
:103BC00048932046ADB203F0E5FE26F07F4B05F1A9
:103BD000804504F5A8732B4A019305F58835DC462A
:103BE0004FF0030A019B2CF07F4041F82300C1F8FD
:103BF0004493D1F804856FF00200A0EB0800604404
:103C000020F07F40904221D9286860B1D1F8048526
:103C1000A8EB0B0020F07F40B0F5000F16D920462E
:103C200003F0B8FE174A0AEB080C0AF1010AD9E7BB
:103C30000123154ABFF35B8FA34052E8000F1843DE
:103C400042E800010029F8D1BFF35B8F0B490C98C3
:103C5000230101EB0412C2E90267C8500D9B5360B7
:103C6000002520460099FFF733FF284603B0BDE842
:103C7000F08F6FF01505F4E701008000300300209D
:103C800000100140FDFF7F00C80B002073B51B4CE6
:103C90001B4BC4F80833C4F848331A4B00254FF0C7
:103CA000FF304FF0FF31C4F80855C3E902014FF46B
:103CB0008033C4F80433144B02264FF40032012140
:103CC000C4F804631120C3F880212A46FDF76CFE76
:103CD0001120FDF739FE0D4A0123A3602360136014
:103CE0000B4B0C4A0093019500232846FFF740FF39
:103CF0003046FEF7ABFD284602B070BD0010014013
:103D000003000F003003002000E100E0CC0B002096
:103D1000893A0000FFFF7F002DE9F7432F4CD4F8CC
:103D2000043399070BD5D4F8043143B12C4A00234E
:103D3000C4F80431D4F80431136801331360D4F8A3
:103D40000433DA032AD5BFF35B8F264B53E8002FE9
:103D500022F0010143E800100028F7D1BFF35B8F88
:103D6000D30702D4D4F84031C3B10025C4F8405180
:103D7000D4F84031FFF7DAFE4FF02003EFF3118261
:103D800083F31288BFF36F8F174BD3E90267B042FA
:103D9000B94106D282F31188BFF36F8F03B0BDE83B
:103DA000F0834FF0FF384FF0FF39C3E90289D3E9C0
:103DB00000101D604FF48033C4F84833C4F84051FC
:103DC000D4F8403182F31188BFF36F8F0029E5D01A
:103DD000009032463B4628468847DFE70010014006
:103DE000D00B0020C80B002030030020431C13B56B
:103DF00022D0012822DD124A124B9042D4BF044641
:103E00001C46FFF793FE104B0E49D3E90023801A9E
:103E1000B0F5000F28BF002404448C4228BF0C4694
:103E2000A2180A4900914FF00000019043F10003ED
:103E3000FFF79EFE02B010BD024CE2E70124E0E76E
:103E4000FEFF7F00FFFF7F0040030020893A000053
:103E500008B5FFF76BFE024B1B68C01A08BD00BF18
:103E60004003002010B5084C012363601120FDF7CA
:103E700079FD064BC4F80833C4F84833044B4FF4BB
:103E80000032C3F8802110BD0010014003000F0074
:103E900000E100E0BFF34F8F0549064BCA6802F40A
:103EA000E0621343CB60BFF34F8F00BFFDE700BF5D
:103EB00000ED00E00400FA054FF08053D3F8302104
:103EC000082A06D1D3F83431052B02D8024AD05C37
:103ED00070470020704700BF308C0000024AD2F8C3
:103EE0000034002BFBD0704700E0014010B54FF0CC
:103EF0008053D3F83021082A4ED14FF08042002160
:103F0000C2F80C11C2F81011C2F8381502F540427F
:103F1000D3F80414C2F82015D3F80814C2F82415F5
:103F2000D3F80C14C2F82815D3F81014C2F82C15C5
:103F3000D3F81414C2F83015D3F81814C2F8341595
:103F4000D3F81C14C2F84015D3F82014C2F8441555
:103F5000D3F82414C2F84815D3F82814C2F84C1525
:103F6000D3F82C14C2F85015D3F83014C2F85415F5
:103F7000D3F83414C2F86015D3F83814C2F86415B5
:103F8000D3F83C14C2F86815D3F84014C2F86C1585
:103F9000D3F84434C2F87035FFF78EFF18B1474BA1
:103FA000474AC3F88C26FFF787FF18B1454BFB2221
:103FB000C3F81825FFF780FF70B14FF080414FF034
:103FC0008053D1F8E42ED3F8583222F00F0203F0D8
:103FD0000F031343C1F8E43EFFF76EFF20B13A4BE5
:103FE0004FF40072C3F840264FF08053D3F83031BD
:103FF000082B09D14FF08043D3F80024D20744BFE7
:104000006FF00102C3F80024304AD2F8883043F43C
:104010007003C2F88830BFF34F8FBFF36F8F4FF03C
:104020008053D3F83021082A0ED1D3F83431052B30
:1040300002D8274AD35C3BB14FF01023D3F80822B3
:104040004FF08043C3F858254FF01021D1F80C32BF
:10405000DB0714D51F480123C0F80435FFF73EFFE6
:10406000D1F80C3223F00103C1F80C32FFF736FF10
:104070000023C0F80435FFF731FFFFF70BFFD1F83D
:104080000032002B03DBD1F80432002B14DA114983
:1040900001234FF01020C1F804351224FFF71EFF52
:1040A000C0F80042FFF71AFFC0F80442FFF716FFFE
:1040B0000023C1F80435DEE710BD00BF005000400A
:1040C0004881030000F000400090024000ED00E055
:1040D0002A8C000000E0014070B501250268BFF3A2
:1040E0005B8FB2FA82F3C3F11F03DBB205FA03F46C
:1040F00022EA040450E8006F964204D140E8004CE4
:10410000BCF1000FF6D1BFF35B8FE7D101480B7014
:1041100070BD00BF0000AD0B10B50368CB40DB07DE
:1041200014D401238B400268BFF35B8F43EA020182
:1041300050E8004F944204D140E8001CBCF1000F4D
:10414000F6D1BFF35B8FEED1014810BD0148FCE70B
:104150000000AD0B0400AD0BF7B5044618B1012803
:1041600022D003B0F0BD4FF080430222C3F80823F1
:10417000C3F80401D3F804210122DA6007460123C1
:104180008DF8073042F210754FF08046CCB1012C0B
:10419000E7D1C7B3D6F80C3403F001033B70D6F86F
:1041A0000C34DA0321D516E04FF080430022C3F827
:1041B0000803C3F80021D3F8002158600DF1070768
:1041C000DDE7B7B1D6F8183403F003033B60D6F847
:1041D0001834D803C5D59DF80700012803D103F092
:1041E000F5FB013DD2D1012CBBD10C4B00225A7101
:1041F000B7E7D6F81834D903B3D5012003F0E6FBAE
:10420000013DF6D1ADE7D6F80C34DB03EDD5012046
:1042100003F0DCFB013DF6D1E7E700BFD40B002043
:10422000044B1A7922B9012218609A80024870471B
:1042300002487047D40B00200000AD0B0C00AD0B02
:1042400010B54FF08043D3F800216AB10022C3F8C3
:104250000021D3F800210122C3F80823114B58791B
:1042600010B95A711B6898474FF08043D3F8042166
:1042700072B10022C3F80421D3F80421D3F8182422
:10428000D3F81814920704D10122C3F818259A60B4
:1042900010BD0222C3F80823024BBDE810401B6882
:1042A00001201847D40B0020036803F01F025B09AC
:1042B000012B0260024818BF4FF0A040704700BFBA
:1042C00000030050034B083033F81000C0F34010D7
:1042D000704700BFCC01002070B500F108030C4C02
:1042E00034F81330DA0505460E4607D5C3F34323E9
:1042F00004EBC30254F8333052689847A3682BB1DB
:10430000E26831462846BDE87040184770BD00BFDE
:10431000CC01002010B4134A083032F81030D9050F
:104320001CD5C3F3432123F4F85322F8103002F1D3
:104330000E04002034F8023F13F4807F03D0C3F34F
:10434000432399420AD001303028F3D1002342F8A8
:10435000313005485DF8044BFFF7DEBE5DF8044BD5
:10436000704700BFCC0100204002002038B5024653
:10437000FFF7A8FF094C02F1080540B134F81530E9
:1043800007495B0B03F5A273002041F82300104698
:10439000FFF7C0FF002324F8153038BDCC01002002
:1043A000006000402DE9FF41044616461D4601B35A
:1043B0004E4F00F1080837F818309B0702D5FFF779
:1043C00081FF10BB0023CDE900338DF80E308DF84E
:1043D0000F300DF10F020B4620460DF10E0103F0D8
:1043E00042FB37F8183023F0020343F0010327F8AB
:1043F000183046B33D4B96F800C0726804F10807C8
:1044000033F81710880702D5AAB139481DE021F00A
:104410002001C904C90C23F8171062B1BCF1030FC5
:10442000F3D872681678BCF1000F11D1314A06F545
:10443000A27642F826C033F8172022F01C0242EA86
:104440008C0223F8172045BB2B4804B0BDE8F0814F
:10445000B20002F1804202F5C04241EA4631D2F890
:10446000100520F00300C2F81005D2F8100520F462
:104470004F3020F44070C2F810052002D2F810E549
:1044800000F47C5040EA0C4040EA0E0041F020016C
:1044900023F81710C2F81005CDE7D5E900672046CC
:1044A000FFF738FF002ECFD0104DD5E900239642FC
:1044B00001D19F4218D011480DF10F01FFF70CFEFA
:1044C0000D4B9842C1D19DF80F2045F8326005EBA5
:1044D000C20308345F6035F8143043EA422343F4E2
:1044E000807325F81430AFE70022EEE7CC010020FE
:1044F0000400AD0B006000400000AD0B4002002046
:10450000F0B5044685B0154619B3334E00F10807DF
:1045100036F81720930703D4FFF7D4FE002858D1AC
:1045200012F01C0F02D04B78012B52D001238DF8D2
:104530000F300023CDE900134A1C8B1C20460DF1DF
:104540000F0103F090FA36F8173043F0030326F812
:10455000173015B9214805B0F0BD1F4E04F108070A
:1045600036F81700830734D595F800C061468900F6
:1045700020F0200001F18041C00401F5C041C00CD1
:1045800026F817000023C1F810356A78002AE1D018
:10459000D1F81035AD7823F4991323F4F853C1F80A
:1045A0001035D1F810E5230203F47C53120402F411
:1045B000403243EA0E0313432A0502F4801240EA14
:1045C0004C30134340F0200026F81700C1F8103596
:1045D000C0E70348BFE700BFCC0100200000AD0BDF
:1045E0000400AD0B014BC3E902017047CC01002070
:1045F00008B50246FFF766FE38B1054B054808329C
:1046000033F812305B0B0B7008BD0348FCE700BFAA
:10461000CC0100200000AD0B0400AD0B38B50F4CF1
:1046200094F87850BDB96022294604F1100002F0D8
:1046300052FD0620FDF788F9094B0A48C3F87C5162
:10464000D3F87C214FF00042C3F80423012384F8FF
:104650007830636738BD0448FCE700BFCC01002018
:10466000006000400000AD0B0500AD0B034B93F85C
:104670007800003818BF0120704700BFCC0100202F
:1046800001460148FFF748BD3C02002001460148B1
:10469000FFF722BD3C02002037B50446FFF712FEAB
:1046A00004F108021E4B33F81230E8B113F0020592
:1046B0001AD15B0B9A0002F1804000F5C24002F172
:1046C000804202F5C04205600068D2F8100540F053
:1046D0000100C2F8100529B1012202FA03F3114AC0
:1046E000C2F8043303B030BDC3F38203042B12D0ED
:1046F000052B12D001A80194FFF7D6FD019BD0F83D
:104700001015D94001F001010231204603B0BDE887
:10471000304003F0F1B90321F7E70221F5E700BFCC
:10472000CC0100200060004008B50246FFF7CAFD3A
:10473000C0B102F108010E4B33F81130990711D4C2
:104740005B0B01229A409B000A4903F1804303F569
:10475000C043C1F80823D3F8102522F00302C3F8A0
:10476000102508BDBDE808400021104603F0C4B97B
:10477000CC0100200060004013B50E4B00F1080290
:10478000044633F81230DB0711D5FFF7CDFF204682
:10479000FFF7ECFD01A80194FFF786FD019B03F5EF
:1047A000E073022240F82320034802B010BD034802
:1047B000FBE700BFCC0100200000AD0B0400AD0BF7
:1047C0002DE9F04F684B69486949002687B00122FE
:1047D00034461D6835B1D0F8045315421EBF1C6025
:1047E0001D68164304338B424FEA4202F1D1DFF8D1
:1047F0007C91D9F87C31002B00F099804FF0A043D8
:10480000D3F820250492C3F82025D3F82028059258
:10481000C3F820284FF000080DF1100A4FEA4813A2
:1048200000934FF0010B49E0009B524A94FAA4F424
:10483000B4FA84F41C44E00804F10803039432F849
:1048400013701AF8003004F007020BFA02F223EAA0
:1048500002030AF8003003A8FFF726FD039B03F5C7
:10486000E073B90850F82330C7F382054A072F4692
:10487000C3F301432CD520463946DDB2FFF72CFDAA
:1048800003A80394FFF710FD039B03F5E07350F8B2
:104890002330C3F301439D4207D10021204603F09A
:1048A0002BF92946204603F027F903A80394FFF7C4
:1048B000FBFC039B0BFA03F3C0F820355AF82840A1
:1048C000002CB1D1B8F1000F1DD14FF00108A5E7C0
:1048D000022B0CD10321204603F00EF905F005034D
:1048E000012BE2D139462046FFF7F6FCDDE7022135
:1048F0002046019303F000F9032DF3D0019B032B15
:10490000D3D1022DEDE74FF0A042C9F87C41D9F890
:104910007C311949D2F820350493C2F82035D1F8FA
:10492000202505921343C1F820257FF473AF01249D
:1049300016B907B0BDE8F08F96FAA6F3B3FA83F381
:1049400004FA03F29B0003F1804303F5C04326EA17
:104950000206D3F81005D3F81015C0F30520C1F3F3
:104960000141FFF7B9FCE3E700610040006000404F
:1049700020610040CC0100200003005001460148A6
:10498000FFF7AABB48020020036803F01F025B097F
:10499000012B0260024818BF4FF0A040704700BFD3
:1049A000000300502DE9F3410779524C4FF0280CD9
:1049B0000CFB07FC064604EB0C00057F002D40F0C5
:1049C0009680356844F80C204360CB7B80F8253016
:1049D000CB7883774B79C377CB7B002B40D10B7B94
:1049E0000878012B7AD803F0B1F80B78019301A86D
:1049F000FFF7CAFF019B03F5E073012240F8232073
:104A00004878FF280CD003F0A1F84B78019301A857
:104A1000FFF7BAFF019B03F5E073032240F8232060
:104A20008B78FF2B0CD001A891F80E800193FFF733
:104A3000ABFF019B03F5E0734FEA880240F82320A7
:104A4000C878FF280CD003F074F8CB78019301A844
:104A5000FFF79AFF019B03F5E073032240F8232040
:104A60000B7C93B94B780878FF2B18BF1A468B78CC
:104A7000C5F8080508BF4FF0FF32FF2B08BF4FF005
:104A8000FF33C5F80C25C5F810358B68C5F82435FB
:104A90004B7B0A7B003B18BF0123022A21D0032A4B
:104AA00022D0012A01D143F00203C5F85435012375
:104AB000C5F8003528237B43E35823B1306840F321
:104AC0000730FCF741FF282303FB074400236377EB
:104AD00009480123237702B0BDE8F08103F029F8EB
:104AE00083E743F00403E0E743F00603DDE7034810
:104AF000F1E700BFDC0B00200000AD0B0500AD0BA3
:104B000070B50679194C056828237343E35833B10F
:104B100045F30730FCF726FF0423C5F808330023CC
:104B2000C5F80035282303FB064393F82530BBB9AD
:104B3000D5F8080502F0EFFFD5F81005421C01D0AA
:104B400002F0E9FFD5F80C05431C01D002F0E3FFA9
:104B5000282303FB0643987FFF2801D002F0DBFFE8
:104B6000282303FB06440023237770BDDC0B0020C1
:104B70002DE9F8430779394C28237B439046E21806
:104B80000E46517F8146002966D1E3580BB10123BF
:104B9000537796E80F00282505FB074505F10C0C17
:104BA0008CE80F00A87F0023FF2885F8243001D06F
:104BB00002F0CCFF2823B8F1000F06D003FB074317
:104BC000002227485A77BDE8F883D9F8005003FB44
:104BD00007430422C5F80823C3F82080C5F80881DC
:104BE000D5F8082172689AB133681B78C5F81C356E
:104BF0007368012B0ED933685B78C5F81C35282300
:104C00007B43E65876B10423C5F804331548DAE748
:104C1000DB7FEBE7F368012BF1D9282303FB074384
:104C2000DB7FEAE707EB870104EBC101D5F8083128
:104C3000002BFBD0C5F808612846D5F8083102F0F2
:104C400092FF0028F2D1282303FB0744A07FFF280E
:104C5000DCD002F06EFFD9E70348B4E7DC0B00209C
:104C60000300AD0B0000AD0B0B00AD0B02494FF084
:104C7000402002F0ABBF00BF040C0020036803F02B
:104C80001F025B09012B0260024818BF4FF0A040D1
:104C9000704700BF000300502DE9F7437A4C0579B7
:104CA000064604EB4510007F002840F0E980002D07
:104CB00040F0E8803768C4E90023CA7CA37F62F330
:104CC0000003A3770A79DBB262F34103A3774A7C3E
:104CD000DBB262F38203A377CB78E377CB7CD6F8A1
:104CE0000080002B5ED18B680878B3F1A05F0B7B4E
:104CF00008BF0325012B00F2AD8002F08EFF0B7878
:104D0000019301A8FFF7BAFF019B2D0203F5E073A1
:104D100045F0010240F823204878FF280DD002F02A
:104D20007CFF4B78019301A8FFF7A8FF019B03F5D7
:104D3000E07345F0030240F823208B78FF2B0CD062
:104D400001A891F80E900193FFF798FF019B03F5DE
:104D5000E07345EA890240F82320C878FF2810D084
:104D60000B79002B79D002F058FFCB78019301A882
:104D7000FFF784FF019B03F5E07345F0030240F861
:104D80002320C87BFF280DD002F03AFFCB7B019394
:104D900001A8FFF773FF019B03F5E07345F00305DE
:104DA00040F823500B7D5BBB4B780878FF2B18BF76
:104DB0001A468B78C8F8080508BF4FF0FF32FF2B62
:104DC00008BF4FF0FF33C8F80C25C8F81035337909
:104DD000B3B9CB78FF2B43D04A7C002A40D0087966
:104DE0008A7CC8F81435C8F86805C8F86425337992
:104DF00033B9CB7BFF2B08BF4FF0FF33C8F86C35BE
:104E00000B7CC7F860358B68C7F824354B7B0A7B71
:104E1000003B18BF0123022A2CD0032A2DD0012ADF
:104E200001D143F00203C7F854358B79C7F8C03578
:104E30000723C7F80035236823B1306840F30730F3
:104E4000FCF782FD0023637710480123237703B02A
:104E5000BDE8F08302F0D4FE51E702F0D1FE84E712
:104E60004FF0FF33C8F814350023C8F86835C8F888
:104E70006435BCE743F00403D5E743F00603D2E70B
:104E80000348E4E70348E2E7300C00200000AD0BE4
:104E90000500AD0B0300AD0B2DE9F34103792A4D5D
:104EA00004685E0105EB4318AB590746CBB144F3E8
:104EB0000730FCF757FD254BC4F8083398F81D3030
:104EC0007BB1012363614FF06408D4F804312BB93E
:104ED000012002F07BFDB8F10108F6D1AB190022E8
:104EE0005A770023C4F80035AB199B7FDB071FD42A
:104EF000D4F8080502F09EFED4F8100502F09AFEE0
:104F0000D4F80C0502F096FE3B791BB9D4F86C0579
:104F100002F090FEAB19DB7FFF2B09D001A80193B3
:104F2000FFF7ACFE019B03F5E073022240F823205B
:104F3000074B9C4208BF0123354408BF6360002330
:104F40002B7702B0BDE8F081300C00205201080040
:104F500000F002402DE9F843544F037907EB431862
:104F6000154698F81D2081460C465E01002A40F047
:104F70009B80BA592AB115F0140F04BF012288F89A
:104F80001D2094E80F0007EB060C0CF10C0C8CE8CC
:104F90000F000121404602F05DFE2168D9F8003083
:104FA00021B101F06042B2F1005F06D1A26852B1B6
:104FB00002F06042B2F1005F05D03E4400233C485D
:104FC0007377BDE8F8836268C3F84415C3F84825D1
:104FD000D4E90212C3F83415C3F83825354A934290
:104FE00025D14FF08042D4E90001D2F8004E324A78
:104FF0001460E1B1314C20F4FF5222F01F02A242B2
:105000003BD80C18DFF8C0C0C2F34F3001218140FB
:10501000002002F50052944240EA01004FEA4101AB
:1050200001D96245F5D34FF08042C2F8000E00224C
:10503000C3F81821D3F8182115F0010218BF012276
:10504000C3F8502515F0020218BF0122C3F840250D
:105050002A0715D5BA59E2B9164A934202BF164B30
:105060001A684FF080434FF0000108BFC3F8002ECC
:10507000404602F0EFFD1248A3E74FF48070D2E7FC
:1050800001221A61BA5922B9D3F81821002AFBD09B
:10509000E2E715F0040F4FF0400202D0C3F80823F6
:1050A000E9E7C3F80423E6E706488AE7300C002066
:1050B0000A00AD0B00F002402C0C0020FFFF002086
:1050C0000000AD0B0B00AD0B0020012070B50F4BA5
:1050D000D3F81821C2B10E4A0E4C11684FF080422D
:1050E0000025C2F8001E2046C3F818512946D3F8FF
:1050F000183102F0AFFD65772572D4E9003104F173
:105100000800BDE87040184770BD00BF00F00240C5
:105110002C0C0020300C002013B53B4B01930023D6
:10512000C0F80431D0F80421C0F82431D0F824218B
:10513000C0F81C31D0F81C21C0F80831D0F8082183
:10514000C0F800324B6381F82F300123036291F8DD
:105150002D209A4218BF83604B6B8A6A93420446A3
:105160000ED24A6AD35CC0F81C350B6803B340F218
:1051700086238B608B682548C4F8043302B010BDC9
:1051800091F82C3013B10123C361EEE70B6A13F0E1
:10519000400F4FF0010316BFC361436181F82D300A
:1051A000E3E7204602F066FD28B1019B013B019335
:1051B000019B002BF5DC91F82F305BB91348019B64
:1051C000002BDBDC0023C4F8003505231048C4F8AD
:1051D0000035D3E7D4F8C434C4F8C4348BB10D4AD5
:1051E0000B4813F0010F18BF104613F0020F02F125
:1051F000010218BF104613F0040F074B18BF1846E2
:10520000DDE70348DBE700BFA08601000000AD0B2F
:105210000100AD0B0000AE0B0200AE0B13B5334B1B
:1052200001930023C0F80431D0F80421C0F82431E0
:10523000D0F82421C0F81C31D0F81C21C0F8083166
:10524000D0F808214B6381F82F308B6A012B04467C
:1052500017D10B6A5B0614D40223C4F80032012371
:10526000236291F82D20022A18BF23600B688BB1AE
:1052700040F286238B608B681D48C4F8043302B06B
:1052800010BD0123E9E7204602F0F4FC28B1019BA0
:10529000013B0193019B002BF5DC91F82F305BB9AA
:1052A0001348019B002BEADC0023C4F800350523DA
:1052B0001048C4F80035E2E7D4F8C434C4F8C43464
:1052C0008BB10D4A0B4813F0010F18BF104613F0B5
:1052D000020F02F1010218BF104613F0040F074B32
:1052E00018BF1846DDE70348DBE700BFA0860100D2
:1052F0000000AD0B0100AD0B0000AE0B0200AE0BC9
:105300002DE9F04107792B4D4FF03C0E0EFB07FEC7
:1053100005EB0E0494F82E60002E49D1D0F800C0A1
:1053200045F80E20A660636084F82D6084F8316033
:1053300084F830604B7B84F838308B7B84F83930CC
:10534000E3B90C681C4B04F01F066409012C08BF6C
:10535000984606F5E07418BF4FF0A04840F20C6E76
:1053600048F824E04C6804F01F066409012C18BFBB
:105370004FF0A04306F5E07443F824E0CB7B2BB953
:10538000D1E90043CCF80845CCF80C358B68CCF853
:10539000243522B1006840F30730FCF7D5FA3C23EE
:1053A00003FB07550548012385F82E30BDE8F08141
:1053B0000348FBE7500C0020000300500000AD0B39
:1053C0000500AD0B036802790521C3F80015044BF5
:1053D0003C2101FB0233022283F82E20704700BFDC
:1053E000500C002003680B4A0179C3F80823D3F856
:1053F000002222F00302C3F800220022C3F8002595
:10540000054B3C2000FB0133012183F82E1083F86B
:105410003020704786420400500C00202DE9F047F0
:10542000314F0479D0F800903C2303FB04730D4600
:1054300093F82D30012B944604D10B78012B06D123
:105440002A4811E0022B02D10B78012BF8D13C261F
:10545000274BC9F8083306FB047696F830302BB199
:10546000B3682448C9F80433BDE8F0878CF004031E
:10547000C3F3800386F83030C6F820C0A846B8E8E9
:105480000F0006F10C0EAEE80F00D8F80030CEF891
:1054900000306B68B362EB6873626B78C9F888356B
:1054A0002B78C4EB041A012B07EB8A0A17D09BB99F
:1054B000CCF3401C3C2303FB04735146484683F85D
:1054C0002CC0FFF729FE3C235C433A193B59002BC3
:1054D000CAD182F83030C7E74FF0010CEAE75146F5
:1054E0004846FFF79BFEEEE7500C00200500AD0B91
:1054F000864204000B00AD0B0149024802F052BC89
:10550000500C002000300040036803F01F025B09CC
:10551000012B0260024818BF4FF0A040704700BF47
:1055200000030050F7B5064602F093FC084602F06F
:1055300090FC01A80196FFF7E7FF019B03F5E073DC
:105540000C4640F20D6140F8231001A80194FFF7CA
:10555000DBFF019B03F5E073092540F823100420CD
:1055600002F034FA012701A80194FFF7CDFF019A58
:10557000D0F81035D340DB0715D401A80196FFF70A
:10558000C3FF019B07FA03F3C0F80C35042002F0B7
:105590001DFA304602F05DFC013D042002F016FACF
:1055A00015F0FF05DFD101A80194FFF7ADFF019AC7
:1055B00001239340C0F80C35042002F007FA20467E
:1055C00002F047FC042002F001FA01A80194FFF761
:1055D0009BFF019AD0F810350348D34003F0010334
:1055E000C01A03B0F0BD00BF0100AD0B10B5144CE4
:1055F000144A1549032323616361144BA261E361DB
:105600004FF4806323620023A3626362E362226635
:105610000F4A6266E01D1022A2662367E366636795
:1056200001F034FDBFF35F8F0A49204601F02EFDE3
:10563000BFF35F8F2023A371BFF35F8F10BD00BF47
:10564000C80C00207D8C0000868C0000A80F002074
:10565000980F00208A8C0000F8B5144B182700FB27
:1056600007751D4407FB00330E46DB6A012B144609
:105670000AD0022B14D023B9284602F0F7FB84424B
:1056800008D900242046F8BD284602F0EFFB8442EA
:1056900028BF044622463146284602F0F0FBF1E7D7
:1056A0002846BDE8F84002F007BC00BFC80C002047
:1056B000104B70B553F82040013053F82060A642DB
:1056C00000D870BDD4E900358DB12846984738B16F
:1056D0000028B8BF4042EB68FF28A8BFFF20187021
:1056E000EA68537843F0010353700834E7E79847BA
:1056F000FBE700BFC089000008B50A4B0122032068
:105700001A70FFF7D5FF01F083F80420FFF7D0FFF0
:1057100000F05EF9FBF76CFD034A137B23F00103F5
:10572000137308BDA81300201004002008B5034817
:10573000034A0021121A02F01AFC08BD30030020AF
:10574000AC13002070B5164E164D1749C02386B015
:1057500003FB006601220023CDE904230F22CDE9DB
:1057600002320193182303FB005504464FF4C07026
:1057700000FB04110D4B00954FF4A072304600F071
:10578000C9F8737B0A4AEE6023F0040373734FF485
:10579000086304FB033313442C746B6006B070BDC4
:1057A00050030020700D0020801C0020895A00004A
:1057B0000014002080B50020B6B0FFF779FF2E4B13
:1057C00083F308882D4D2E4E6B692E4F43F40073E2
:1057D0006B610024E02385F82230EC772C766C7620
:1057E000AC7685F820406B6A43F4E0236B6285F861
:1057F0002340FCF7A9FBFCF787F84FF0FF33AB62BF
:10580000EB6206ADFCF7E0FCFCF740FC40F2011354
:105810002846ADF82430CDE91F4400F0F3FFB56011
:1058200002F07EFB0120FFF743FF0220164DFFF739
:105830003FFF00F0D1FC154BF5610593012314499E
:105840000094CDE903434FF480623B46CDE9014427
:10585000284600F05FF86A7B064622F004022846DC
:105860006A7302F047FC2046FFF76CFF3A46314668
:105870002846FCF7D9F900BF801C002000ED00E0AD
:10588000700D0020F956000010040020918C0000DB
:10589000001E002038B5064C064D0020AC4200D357
:1058A00038BD204602F067FB0028F9DB1C34F5E721
:1058B000C8020020C802002073B50C464FF0200536
:1058C000EFF3118185F31288BFF36F8F45695DB1E6
:1058D00025602B684361836901338361002081F374
:1058E0001188BFF36F8F11E052EA030603D12560E0
:1058F0006FF00B00F3E7CDE900230246083000F01B
:1059000075FB18B9024B9B685B69236002B070BDE0
:10591000700D00202DE9FF410E9E0673042646738C
:105920000D9E867300F158050F46D61DC0E9165529
:105930000C9A002526F007064037C0E90655C0E955
:1059400019768560C573C56606F1400802920B9A08
:10595000019288440A9A009242460446FCF7E0F815
:10596000044B65659B6803B11B6F2367404604B019
:10597000BDE8F081700D0020F0B587B000250595D9
:10598000109D04950F9D03950E9D0295DDE91276FD
:105990000D9D01950C9D00950446FFF7BBFFB6F1E8
:1059A000FF3F08BFB7F1FF3F05D056EA070305D117
:1059B000204600F091FB204607B0F0BD03493A466F
:1059C000334604F1180000F083FDF4E77D81000008
:1059D0002DE9F043294C2A4D87B02646AE4204F10A
:1059E0002C040FD300F0C8FB244CDFF898904FF440
:1059F000004640F2E737AC4220D307B0BDE8F043A1
:105A000000F0CEBB54F8043C059354F80C3C0493CE
:105A100054F8103C039354F8143C029354F8183C87
:105A2000019354F81C3C009354E9092354E90B01F9
:105A3000FFF770FF54F82C3C5E65CEE7636A5A1C92
:105A40000DD023EAE37300213846C3FB060151EA77
:105A5000C333D4F8008004D1404600F03DFB2C3421
:105A6000C9E74FF47A720023FAF74AFB02460B4665
:105A700008F11800494600F02BFDF0E71C860000F5
:105A80001C8600007D81000008B50B4C0B4D4FF0CB
:105A90002002EFF3118382F31288BFF36F8F02F0BD
:105AA000F3FB2B78A06113B9FBF734FFEFE7FBF7AB
:105AB00071FD0028EBD1F7E7700D0020A81300203E
:105AC0002DE9F341044617461E464FF02003EFF33D
:105AD000118883F31288BFF36F8FC368334A7BB199
